:020000040800F2
:10000000F8070024AD020008A34600089940000844
:10001000A1460008E50400085D5600080000000045
:100020000000000000000000000000002949000856
:10003000E704000800000000A54600082B4900085E
:10004000C7020008C7020008C7020008C70200086C
:10005000C7020008C7020008C7020008C70200085C
:10006000C7020008C7020008C7020008C70200084C
:10007000C7020008C7020008C7020008C70200083C
:10008000C7020008C7020008C7020008C70200082C
:10009000C7020008C7020008C7020008C70200081C
:1000A000C7020008C7020008C7020008C70200080C
:1000B000B54A0008C7020008C7020008C7020008C6
:1000C000C7020008C7020008C7020008C7020008EC
:1000D000C7020008C7020008C7020008C7020008DC
:1000E000C7020008C702000800000000C70200089D
:1000F000C7020008C7020008C7020008C7020008BC
:10010000C7020008C7020008C7020008C7020008AB
:10011000C7020008C7020008C14A0008C702000859
:10012000C7020008C7020008C7020008C70200088B
:10013000C7020008C7020008C7020008C70200087B
:1001400000000000000000000000000000000000AF
:10015000C7020008C7020008C7020008C70200085B
:10016000C7020008C7020008C7020008C70200084B
:10017000C7020008C7020008C7020008000000000C
:10018000C7020008C7020008C7020008C70200082B
:10019000C7020008C7020008C7020008C70200081B
:1001A000C7020008C7020008C7020008C70200080B
:1001B000C7020008C7020008C7020008C7020008FB
:1001C000C7020008C7020008C7020008C7020008EB
:1001D000C7020008C7020008C7020008C7020008DB
:1001E000C7020008C7020008C7020008C7020008CB
:1001F000C7020008C7020008C7020008C7020008BB
:10020000C7020008C7020008C7020008C7020008AA
:10021000C7020008C7020008C7020008C70200089A
:10022000C7020008C7020008C7020008000000005B
:10023000C7020008C702000800000000C70200084B
:10024000C7020008C7020008C7020008C70200086A
:10025000C7020008C7020008C7020008C70200085A
:10026000C7020008C7020008C7020008C70200084A
:10027000C7020008C7020008C7020008000000000B
:10028000C7020008C7020008C702000800000000FB
:1002900000000000C7020008DFF80CD000F08CF866
:1002A00000480047ED560008F8070024064880473C
:1002B00006480047FEE7FEE7FEE7FEE7FEE7FEE74B
:1002C000FEE7FEE7FEE7FEE7D949000899020008CD
:1002D0002DE9F05F0546002092469B46884606467B
:1002E000814640241BE0284641464746224600F00E
:1002F00053F853465A46C01A914110D31146184636
:10030000224600F03AF82D1A67EB01084F462246C4
:100310000120002100F031F817EB00094E41201EAA
:10032000A4F10104DFDC484631462A464346BDE8D5
:10033000F09F40EA01039B0703D009E008C9121FA0
:1003400008C0042AFAD203E011F8013B00F8013B8F
:10035000521EF9D27047D2B201E000F8012B491EBB
:10036000FBD270470022F6E710B513460A46044652
:100370001946FFF7F0FF204610BD202A04DB203A83
:1003800000FA02F1002070479140C2F1200320FAE8
:1003900003F3194390407047202A04DB203A21FAE6
:1003A00002F00021704721FA02F3D040C2F120028E
:1003B0009140084319467047064C074D06E0E06837
:1003C00040F0010394E8070098471034AC42F6D39C
:1003D000FFF766FF6C5800088C58000870B53A4962
:1003E00005460068884202D0384A904202D1D1F8CE
:1003F000080302E03648D0F8080310F4403F11D05B
:1004000002F07EFB04466868B0F5803F06D0B0F588
:10041000003F03D0B0F5403F27D101E0000C18E0C9
:10042000A40822E000214FF4002001F001FC044662
:1004300068688103890B18D181140C2915D2DFE873
:1004400001F0140606060606060B0D0F1113800CAC
:100450004000B4FBF0F408E0240906E0640904E07D
:10046000A40902E0E40900E0240A01F0BFF841F227
:100470000301884208D8174884422868816813D845
:1004800021F48071816070BD13496008884204D8EE
:100490002868816821F44071F4E71049884206D841
:1004A0002868816821F4407141F48071EAE70C49C1
:1004B00088422868816804D821F4407141F40071B1
:1004C000E0E741F44071DDE70020024000210240F6
:1004D00000600258002D3101105E5F0020BCBE009C
:1004E00040787D01FEE7704772B6FEE710B58AB02E
:1004F00040F2FF710120002401940294CDE90340F1
:10050000CDE90541204801A900F076FD08B1FFF7CB
:10051000EBFF02214FF08040CDE901046FF0604213
:100520001948CDE9034101A9CDE9054200F064FD78
:1005300008B1FFF7D9FF02221348002311460094A7
:1005400000F099FD08B1FFF7CFFF0F4800F014FF4E
:1005500008B1FFF7C9FF0C480022012100F008FD97
:1005600008B1FFF7C1FF084840F2231224380821E0
:10057000C0E90024C0E90241046144618461C461AE
:1005800004620AB010BD000030010024F0B5036819
:100590004FF6FC716D4C426BD3F884508D4345EAA5
:1005A0008205C3F88450036853F8845F068F25F4EE
:1005B0007F0545EA06451D60836B654D9F180268FF
:1005C000D2F888308B4343EA8703C2F88830026848
:1005D00052F8883F868F23F4FE0343EA06431360F4
:1005E000066856F8A03FC26B8B4307EB420243EA12
:1005F00082033360076857F8A03FB0F8406023F4E7
:10060000FE0343EA06433B60D0E9103603FB0622B3
:100610000368D3F8B0608E4346EA8206C3F8B06040
:100620000368B0F84860D3F8B07027F4FE0747EAD3
:100630000646C3F8B060D0E91267036806FB0722DC
:10064000D3F8AC608E4346EA8206C3F8AC60D0E9CA
:100650001467036806FB0722D3F8F0608E4346EA6E
:100660008206C3F8F0600368B0F85860D3F8F07001
:1006700027F47C1747EA0646C3F8F0600368876DE5
:1006800053F8C06F02EB47028E4346EA82011960BD
:100690000168B0F85C20D1F8C03023F47C1343EA41
:1006A0000242C1F8C020016890F86020D1F8C03043
:1006B00023F07C5343EA0262C1F8C020416B04EB93
:1006C0008101C166826B01EB82020267C36B02EBA0
:1006D000C3024267D0E91034634302EB83028267AE
:1006E000D0E91234634302EB8302C267D0E91434C9
:1006F000634302EB8302C0F88020836D02EBC303E7
:10070000C0F88430C46D826E544303EB8403C0F898
:100710008830046E544303EB8402C0F89020AA4250
:100720000AD9D0F89C20032142F02002C0F89C2076
:1007300080F898100120F0BD002200E004C1D0F83C
:1007400090308B42FAD80020F0BD000000AC004091
:10075000FCD300402DE9F0470F4690F850109AB0B6
:10076000044601294FF0000915D00026DFF8F88073
:10077000012084F8500015961696216841450ED147
:100780003A4D0095284603F090FC8246206803F01D
:100790008CFC60B10EE002201AB0BDE8F087606DFD
:1007A00084F8506040F0200060650120F4E7BAF161
:1007B000000F09D0616D4FF0010941F02000606524
:1007C000484684F85060E7E720684146884201D0F7
:1007D000A84201D1264800E0264840F61F72D7F80B
:1007E00000C0254BBCF1000F23D0D0F808C0D7F8CB
:1007F00004802CF4404C4CEA080CC0F808C0D4F833
:1008000000C08C4501D0AC4507D18968AB6801F0C8
:10081000010103F00103194302E0996801F00101AD
:100820000029CDD1BD6839688368294393431943B2
:1008300017E0876827F44047876027688F4201D018
:10084000AF4207D18968AB6801F0010103F00103F1
:10085000194302E0996801F001010029B0D18168D3
:1008600091438160ACE7000000200240002102407B
:100870000023024000630258006002582DE9F84F3F
:100880004FF0000B0D46E54F0446CDF800B0D946B9
:1008900090F85010DFF888A3012907D0012684F8CA
:1008A0005060206803F0FDFB18B168E10220BDE84C
:1008B000F88F286800280DDB21680303CA6927D058
:1008C00090FAA0F0B0FA80F000F01F0006FA00F0F5
:1008D0000243CA61D5E900124FF00C0C20681F23B7
:1008E000C1F384610CEA921C02F01F026044934041
:1008F0009140026B9A430A430263206803F0D1FBE4
:100900008046206803F0C9FB58EA000003D07FE06E
:10091000C0F38460D8E72068AA68296803F0C9FB9F
:10092000C0480068B6EB107F06D121686869C968C5
:10093000C1F38201490008E02068C168C906C168A6
:100940006869F5D501F01001490888402969042932
:100950002ED023682A6803EB810102F0F8420B6E67
:10096000024303F0004010430866697E226828694C
:10097000012917D05FF0000102EB8000026E22F027
:1009800000420A430266297E20682A6901290CD0A8
:100990000021036902F01F02914023F4F0420A4350
:1009A000026135E04FF00041E6E74FF40061F0E707
:1009B00020682978026E02F0F842B2EB816F03D111
:1009C000016E21F00041016620682978426E02F034
:1009D000F842B2EB816F03D1416E21F000414166D4
:1009E00020682978826E02F0F842B2EB816F03D161
:1009F000816E21F00041816620682978C26E02F084
:100A0000F842B2EB816F03D1C16E21F00041C166A3
:100A10002068816811F0010F76D150F8C02F95F849
:100A20000CC0814B29680CF0180823FA08F3C1F3B5
:100A3000130C0B4022EA0C021A4302607B48E9685F
:100A4000814277D1286801031BD090FAA0F1B1FA56
:100A500081F1491C01F01F0109294FEA003131D809
:100A6000002911D090FAA0F1B1FA81F101F1010150
:100A700001F01F0106FA01F609D100BFC0F384613D
:100A800009E0C0F38461E4E7C0F38461EEE790FA23
:100A9000A0F1B1FA81F101F1010101F01F0146EA73
:100AA000816102D1C0F3846003E090FAA0F0B0FA53
:100AB00080F000F1010000F01F0000EB400041EA6F
:100AC000005133E000290ED090FAA0F1B1FA81F183
:100AD00001F1010101F01F0106FA01F606D100BF84
:100AE000C0F3846106E0C0F38461F1E790FAA0F1FD
:100AF000B1FA81F101F1010101F01F0146EA8161C2
:100B000003D1C0F3846004E03FE090FAA0F0B0FAB3
:100B100080F0474A00F1010000F01F0000EB4000A8
:100B200002EB005041EA000141F00071AA68206820
:100B300003F0BFFA2E68002E27DA3E4A20683E49AD
:100B4000DFF8F8C0904201D0B84201D10B4600E076
:100B500063469B68904203F0E07301D0B84209D12C
:100B60009568D7F8088005F0010508F0010845EA06
:100B7000080503E0DAF8085005F001054DB1616D94
:100B80004FF0010941F020006065484684F850B0FC
:100B90008DE62B4DAE421CD11D021AD45045F4D126
:100BA000904202D0B84200D061468A6843F4000007
:100BB00022F0E07202438A60234922480968B1FBAF
:100BC000F0F04000801C00E0401E00900028FBD1A7
:100BD000DBE71E4DAE420CD1DD010AD45045D4D125
:100BE000904202D0B84200D061468A6843F08070DB
:100BF0000EE0174DAE42C8D15D02C6D45045C4D1F7
:100C0000904202D0B84200D061468A6843F4800026
:100C100022F0E07202438A60B7E700000021024040
:100C2000006002580010005CFFFF0F000000FF474B
:100C3000000020FE00200240002302400063025812
:100C4000000084CB400D030010000024000052C7B8
:100C50000000B8CFF8B54FF0000604003546009606
:100C600002D0606D10B107E00120F8BD204600F011
:100C700005F9A66584F8506020688168C1F3407169
:100C800019B18168704A1140816020688168C1F3A0
:100C9000007181B981686D4A114041F080518160D5
:100CA0006C496B480968B1FBF0F0401C00E0401E45
:100CB00000900028FBD120688168C1F3007141B920
:100CC000616D012541F010016165A16D41F00101E7
:100CD000A16503F0E6F9616DC90600D420B1606D2D
:100CE000012540F0100093E0606D20F4807040F02A
:100CF000020060652068816811F0010F1FD1564A1B
:100D0000564B904201D0984207D191689E6801F0FD
:100D1000010106F00106314303E05149896801F001
:100D2000010161B9904201D0984201D14D4800E0E3
:100D30004D488268616822F47C120A43826000F0A8
:100D400055FC41F20301884202D9A06810280CD05A
:100D5000617D227FA368206B490341EA0241184369
:100D60000843217F01290CD010E0607D227F216B98
:100D7000400340EA024241F01000104340F00C00F2
:100D8000EFE7218C394A02EB41410843616A29B1FE
:100D9000A26A01F47871014342EA01002168344BF0
:100DA000CA681A400243CA60206803F07AF906460E
:100DB000206803F072F930431DD1216844F2030327
:100DC000267DE26AC86842EA863298431043C860CA
:100DD00094F8380001281ED02068016921F0010133
:100DE00001612068626B016921F07041114301616A
:100DF0002046FFF7F3FAE068012820681CD0016B59
:100E000021F00F010163606D20F0020040F001004D
:100E100060652846F8BD2068A28F164FD4E9101CE3
:100E2000154E07EB0247A36C026941EA0C013B43F4
:100E3000324019431143D3E7A269016B521E21F0DE
:100E40000F011143DEE70000C0FFFF5FC0FFFF7F1F
:100E5000400D030010000024002002400021024049
:100E60000060025800230240006302580000FEFFA9
:100E700003C0F0FF0100FFFF1EF800FCF0B587B0D3
:100E8000044614216846FFF76DFA2B4B00252949CB
:100E9000DFF8A8C0276808311A680324254E674583
:100EA000274802F1010226D1012A1A6007D13268CF
:100EB00042F020023260326802F0200205920A6895
:100EC00042F004020A600A6802F0040205920A680D
:100ED00042F002020A60096801F002010591302126
:100EE0008DE83200694600F061FA009469461548C1
:100EF000CDE901451AE0DFF850C0674518D1012A55
:100F00001A6007D1326842F020023260326802F083
:100F1000200205920A6842F004020A60096801F0A2
:100F20000401059110218DE83200694600F03EFA77
:100F300007B0F0BDD8440258000000240020024051
:100F400000080258000402580021024070B504460F
:100F500000F052FB0546601C02D0044800780444AF
:100F600000F04AFB401BA042FAD370BD04000024ED
:100F700010B590F89830012B09D0022B07D0D0F88B
:100F80009C1041F00201C0F89C10012010BD0368C4
:100F90009C6D0C4203D1DC6D44F0010404E09C6DB7
:100FA00031EA04041FD00324DC658B0505D50368F2
:100FB000D3F8E0401443C3F8E0404B0505D503687F
:100FC000D3F8E4401443C3F8E4400068084A01EA57
:100FD0000203446D074A1C434465106840EA91705F
:100FE0001060002010BDDC6D44F00204DCE700005E
:100FF000FFFFCF3F14A8004070B590F89820012A59
:1010000009D0022A07D0D0F89C1041F00201C0F8A4
:101010009C10012070BD0B68CA6883B10B69072A58
:1010200043EA427325D00C7A4A6942EA84724968DD
:10103000006F00EBC100C0E90032002070BD072A3C
:101040000DD00C7AD6060D8A4B6943EA847246EAC3
:101050000543C06E49681A4340F82120EDE70B8A2A
:101060004FF06055D1E9062442EA034245EA0423E1
:10107000EFE78A69DBE730B590F89850039C012DC3
:1010800007D0D0F89C1041F00401C0F89C1001205A
:1010900030BD0D01016845EA820040EA430020436B
:1010A000C1F88000002030BD2DE9F04194B08D4999
:1010B0004C2204466846FFF73CF964B18A4D20682B
:1010C000A84202D100F58070606094F898004FF05B
:1010D000000820B108E0012014B0BDE8F0812046EE
:1010E00084F8998000F002F92068816921F01001EC
:1010F000816100F081FA0327064604E000F07CFAE3
:10110000801B0A2811D8206880690007F6D420685F
:10111000816941F00101816100F06EFA06460DE03F
:1011200000F06AFA801B0A2808D9D4F89C0040F025
:101130000100C4F89C0084F89870CCE720688069AE
:10114000C007EDD02068816941F002018161207CF7
:1011500001282068816937D041F040018161607CBD
:1011600001282068816932D021F480418161A07C0E
:101170000128206881692DD041F480518161206867
:10118000A268816921F440711143816120688169FD
:1011900021F0A40181612068016921F01001016141
:1011A000E068012819D010B302281BD0206881699B
:1011B00041F0800181612068016941F01001016105
:1011C000E06803280ED012E021F04001C6E741F4A8
:1011D0008041CBE721F48051D0E72068816941F05C
:1011E000040103E02068816941F020018161207ED3
:1011F0006FF0FF02D4E90773A68A1102400602EBE2
:101200000727A0F10070384327685B1E184301EBE5
:1012100006463043F861A068B0F5407F11D104F173
:101220002800A68C6FF00F0C89C801EB0641401E08
:1012300002EB0322104322680CEB07131843084308
:10124000D060206E30B12068626ED0F8C0101143BB
:10125000C0F8C010D4E917126846D14209D02168FD
:10126000A36E51F8C82F50F8233022F007021A431A
:101270000A60216C49B12168626C51F8BC3F50F89A
:10128000226023F0070232430A60A16C51B1216849
:10129000E36C51F8BC2F50F8233022F0700242EA80
:1012A00003120A60216D51B12168626D51F8BC3F93
:1012B00050F8220023F4E06242EA0020086020682F
:1012C000A84204D16068816821F003018160C4F8FC
:1012D00094800121C4F89C8084F898102046FFF780
:1012E00055F9F9E6E857000800A0004010B5B6B07F
:1012F0000446142130A8FFF735F8C0216846FFF7EF
:1013000031F81A49206888422DD100204FF400415D
:10131000CDE900104A0368461C9200F0EDFD08B1CB
:10132000FFF7E2F81248016841F48071016000683B
:1013300000F4807035900E480C38016841F00101CE
:10134000016000680923022200F0010035900020AE
:101350004FF4C051309130A9CDE93120CDE93303AC
:10136000044800F023F836B010BD000000A0004093
:10137000EC4402580000025890F89810012907D058
:10138000D0F89C1041F00401C0F89C100120704777
:10139000022180F89810002201688B6923F0010374
:1013A0008B61C0F89C201046704700002DE9F84F73
:1013B00003247D4D00234FF001094FF0B04B4FF057
:1013C0000F0AE9E009FA03F73A4076D00E7906F001
:1013D0000306012E01D0022E18D1D0F808C04FEA22
:1013E000430ECE6804FA0EF82CEA080C06FA0EF644
:1013F00046EA0C068660D0F804C00E792CEA070C89
:10140000C6F300169E4046EA0C0646600E79F64387
:10141000B6070BD0C6684FEA43088F6804FA08FC89
:1014200026EA0C0607FA08F73743C7600E7906F07C
:101430000306022E12D1DE080F694FEA437C00EB4F
:101440008606B646366A4FEADC6C0AFA0CF807FAEA
:101450000CF726EA08063743CEF820700F790668A5
:101460004FEA430807F0030704FA08FC07FA08F7F5
:1014700026EA0C06374307604E6816F4403F1CD03E
:101480004A4E376847F00207376036689F0706F014
:101490000206009623F0030606F1B046B6463F0F5B
:1014A000D6F80864DFF808810AFA07FC404526EA06
:1014B0000C0603D14FF0000C41E06CE0DFF8F4C003
:1014C000604502D14FF0010C39E0DFF8ECC0604517
:1014D00002D14FF0020C32E0DFF8E0C0604502D1EB
:1014E0004FF0030C2BE0DFF8D8C0604502D14FF07D
:1014F000040C24E0DFF8CCC0604502D14FF0050CAD
:101500001DE0DFF8C4C0604502D14FF0060C16E0C4
:10151000DFF8B8C0604502D14FF0070C0FE0DFF8EC
:10152000B0C0604502D14FF0080C08E0DFF8A4C05D
:10153000604502D14FF0090C01E04FF00A0C0CFAA3
:1015400007FC4CEA060CCEF808C44F68DBF80060D4
:10155000FF0226EA020600D516435F46CBF800607C
:10156000D1F804C0DBF804605FEA8C2C26EA02069E
:1015700000D516437E606E684F6826EA0206BF03F8
:1015800000D516436E602E684F6826EA0206FF03F8
:1015900000D516432E605B1C0A6832FA03F67FF40E
:1015A00011AFBDE8F88F000080000058F4440258E5
:1015B000000002580004025800080258000C0258AB
:1015C000001002580014025800180258001C02585B
:1015D00000200258002402580069084000D0012071
:1015E00070470AB1816170470904FBE70148006850
:1015F000000C70470010005C0148806870470000D4
:101600000400002402488168027811448160704718
:1016100004000024032010B500F0D4F801F0B6FA5D
:101620000F4A104914681368C4F3032203F00F0330
:101630008A5CC95C02F01F0201F01F01D0400A4A17
:1016400020FA01F11160094908600F2000F010F83C
:1016500008B1012010BD00F079F8002010BD000095
:10166000184402585C58000814000024100000249C
:1016700070B50D4D04462878A0B14FF47A71B1FBD6
:10168000F0F00A490968B1FBF0F001F0DCFD48B95F
:10169000102C07D200222146501E00F073F80020C3
:1016A0006C6070BD012070BD040000241000002497
:1016B000154BF0B5083B427813491A600B680A1FB6
:1016C00023F001030B6043681360057BC67A827ABE
:1016D000437B2D07847B45EA0665C77B90F809C0EC
:1016E000067A90F800E045EAC24040EA834040EACA
:1016F000444040EA074040EA0C2040EA460040EA05
:101700000E000860F0BD0000A0ED00E0BFF35F8FA9
:10171000044800210368034A23F4803303607032D5
:101720001160704724ED00E0074A40F001000649CF
:1017300070321060086840F480300860BFF34F8F4B
:10174000BFF36F8F7047000024ED00E0054808B537
:10175000016841F002010160006800F002000090A1
:1017600008BD0000F4440258002809DB410900F0DC
:101770001F028900012001F1E0219040C1F8000121
:10178000704700000E4BF0B41B680D46C3F30223F4
:10179000C3F10706042E00D90426191D072901D21A
:1017A000002300E0DB1E012404FA06F19C40491EE0
:1017B0002940641E994014402143F0BC03F058BFF7
:1017C0000CED00E0064900F0070210B54FF6FF04EB
:1017D0000868044B204040EA02201843086010BD0E
:1017E0000CED00E00000FA05134970B50A68D24319
:1017F000520705D5096801F00701814213D118E0AD
:101800000A6822F0070202430A60FFF7F5FE0A4D5C
:101810004FF47A760446083D07E000BFFFF7ECFE80
:10182000001BB04201D9012070BD2868C04380046C
:10183000F4D4002070BD00000C48025810B501F02F
:101840005FF905490968054AC1F30211515C01F0CD
:101850001F01C84010BD0000204402585C58000819
:101860004A4930B5494C0B1D0A680C3409681D689B
:10187000246802F0030305F00102C1F30511C4F36B
:10188000CC04002914FB02F200EE102AF8EE400A04
:1018900076D0414A9FED3E1ADFED3E1AB7EE000AC0
:1018A00023B1012B5AD0022B18D15CE0374C283CD5
:1018B00023689B0612D5394B246801EE901A1168F3
:1018C000C4F3C104F8EE612AE34001EE903AC1F39B
:1018D0000801F8EE611A81EEA22A07E002EE101A62
:1018E0001168F8EE422A81EEA22A45E001EE901A34
:1018F0001168F8EE611A40EE811A71EE800A62EE0C
:10190000200AC1F3462101EE101AB8EE411A31EE59
:10191000001AC0EE811ABCEEE11A80ED001A1168BF
:10192000C1F3064101EE101AB8EE411A31EE001A69
:10193000C0EE811ABCEEE11A80ED011A1168C1F304
:10194000066101EE101AB8EE411A31EE000A80EE7F
:10195000801ABCEEC10A80ED020A30BD01EE901A79
:10196000DFED0F2A03E001EE901ADFED0E2A116879
:10197000F8EE611A82EEA12AC1F30801B6E7FFE78B
:10198000002101604160816030BD000028440258A0
:10199000000000390024744C304402580090D003F9
:1019A0000024744A20BCBE4B494930B5484C0B1D3D
:1019B0000A68143409681D68246802F00303C5F33B
:1019C0000012C1F30531C4F3CC04002914FB02F268
:1019D00000EE102AF8EE400A75D03F4A9FED3D1AFE
:1019E000B7EE000A6BB1DFED3D1A012B01D0022BDF
:1019F00064D002EE101A1168F8EE422A81EEA22A93
:101A000021E0334C283C23689B0612D5344B2468D4
:101A100001EE901A1168C4F3C104F8EE612AE340A4
:101A200001EE903AC1F30801F8EE611A81EEA22AA4
:101A30000BE001EE901ADFED2B2A00BFF8EE611AE1
:101A4000116882EEA12AC1F3080101EE901A116813
:101A5000F8EE611A40EE811A71EE800A62EE200AF9
:101A6000C1F3462101EE101AB8EE411A31EE001A08
:101A7000C0EE811ABCEEE11A80ED001A1168C1F3C4
:101A8000064101EE101AB8EE411A31EE001AC0EE0E
:101A9000811ABCEEE11A80ED011A1168C1F30661EA
:101AA00001EE101AB8EE411A31EE000A80EE801AEB
:101AB000BCEEC10A80ED020A30BD04E001EE901ACE
:101AC000DFED092ABAE70021016041608160F3E798
:101AD0002844025800000039384402580024744A4F
:101AE0000090D0030024744C20BCBE4B494930B553
:101AF000484C0B1D0A681C3409681D68246802F0F4
:101B00000303C5F30022C1F30551C4F3CC0400293B
:101B100014FB02F200EE102AF8EE400A75D03F4A9C
:101B20009FED3D1AB7EE000A6BB1DFED3D1A012BB8
:101B300001D0022B64D002EE101A1168F8EE422A8E
:101B400081EEA22A21E0334C283C23689B0612D563
:101B5000344B246801EE901A1168C4F3C104F8EE06
:101B6000612AE34001EE903AC1F30801F8EE611AF0
:101B700081EEA22A0BE001EE901ADFED2B2A00BFC6
:101B8000F8EE611A116882EEA12AC1F3080101EE94
:101B9000901A1168F8EE611A40EE811A71EE800A0F
:101BA00062EE200AC1F3462101EE101AB8EE411A86
:101BB00031EE001AC0EE811ABCEEE11A80ED001A77
:101BC0001168C1F3064101EE101AB8EE411A31EE68
:101BD000001AC0EE811ABCEEE11A80ED011A1168FC
:101BE000C1F3066101EE101AB8EE411A31EE000A97
:101BF00080EE801ABCEEC10A80ED020A30BD04E01E
:101C000001EE901ADFED092ABAE700210160416078
:101C10008160F3E72844025800000039404402582C
:101C20000024744A0090D0030024744C20BCBE4BA6
:101C30002DE9F04FAC4A0546DFF8A8A280F4807089
:101C4000DFF8AC9289B01311AA4C0843A748AAF157
:101C500004064FF0805C4FF000582CD085F40077DC
:101C60000F4357D0DFF87CB285F480670F430BF148
:101C7000080B61D085F400670F4374D085F480575A
:101C80000F436ED085F400570F434FF480394FF463
:101C9000003E67D085F400270F4371D085F480376C
:101CA0000F436ED085F480460E436BD085F400421E
:101CB0000A4368D02AE0DAF8001001F0070105298C
:101CC00024D2DFE801F075BC7D25B10006A8FFF73E
:101CD000C7FD079809B0BDE8F08F6846FFF764FEBE
:101CE0000098F7E703A8FFF701FF0398F2E72068E1
:101CF000C0F3C10022FA00F0ECE72268D20571D5EA
:101D000061456FD11846E5E74145E3D00020E1E7A2
:101D10004846DFE7DAF8001001F4E07180294FD07F
:101D200004DC002944D04029F0D188E0C029EFD05C
:101D3000B1F5807FEAD177E0DBF8001001F46001B3
:101D4000B1F5800F3CD004DC91B3B1F5001FDDD1BB
:101D500075E0B1F5C00FDBD0B1F5000FD6D163E06F
:101D600001E018E030E0DBF8001001F0E061B1F1D3
:101D7000007F25D008DCD9B1B1F1807FC6D15EE00B
:101D800049E06CE079E09CE0B1F1407FC0D0B1F176
:101D9000806FBBD148E0DAF8001001F4E041B1F502
:101DA000005F0DD005DC19B1B1F5805FAED146E022
:101DB00094E0B1F5405FABD0B1F5804FA6D133E0F0
:101DC00020688000A2D58DE7DAF8001001F4E02148
:101DD000B1F5403F6CD006DC61B149457AD0714520
:101DE00094D157E037E0B1F5802F65D0B1F5A02F41
:101DF0008CD10CE000F0A6FE6CE76846FFF7D4FD3E
:101E0000019867E703A8FFF771FE049862E721686D
:101E10008903F1D47AE7DBF8001011F440310ED0D9
:101E2000494510D07145F5D13168256801F0405120
:101E30006D077FF562AF00297FF45FAF57E7206839
:101E40000001E7D549E720688000E3D503A8FFF744
:101E50004DFE05983EE722689203DBD554E73068D3
:101E600010F480303AD04845D4D120680001D1D553
:101E70006846FFF799FD02982CE7DBF8001001F0A7
:101E8000E041B1F1405F13D008DC71B1614521D070
:101E90004145BFD120688000B4D437E7B1F1804F0D
:101EA0000AD0B1F1A04FB2D030E7FFF7C7FC11E77D
:101EB00020684007AED51AE72068C005AAD521E7FB
:101EC00008E0DAF8001011F04051A0D0614505D0CB
:101ED00041459FD1206800018FD417E72068800119
:101EE00098D5F3E6504402580090D00340787D0125
:101EF0000080BB00004402582DE9FE4F0546DFF884
:101F0000E48350F8081B0024F64FC943019005F103
:101F10002800264608F12408009008011DD4A86E68
:101F200050B1B0F5801F0CD0B0F5001F0ED0B0F549
:101F3000401F1ED001240FE0386840F400303860A4
:101F400017E00198022102F0CFFB03E00098022184
:101F500002F05AFC04000CD026462888C043C00575
:101F600023D4A86D05281ED2DFE800F00C11161B43
:101F70001B00AA6ED8F8001021F440111143C8F8D4
:101F80000010EAE7386840F40030386009E0019852
:101F9000002102F0A9FB03E00098002102F034FCCC
:101FA000044674B100E0012426462888C043800519
:101FB00028D4E86D80281ED00CDC90B140280ED1CA
:101FC00014E0AA6DD8F8001021F007011143C8F8F9
:101FD0000010EAE7C02813D0B0F5807F10D00124AC
:101FE0000FE0386840F40030386009E001980021C3
:101FF00002F07AFB03E00098002102F005FC0446A1
:102000009CB126462888DFF8DC92C04309F12C09F0
:1020100040052CD4D5F8A800B0F5800F20D00DDCF9
:10202000A0B1B0F5001F0FD115E0EA6DD8F800108F
:1020300021F4E0711143C8F80010E3E7B0F5C00FD8
:1020400013D0B0F5000F10D001240FE0386840F431
:102050000030386009E00198002102F045FB03E000
:102060000098002102F0D0FB04467CB12646288867
:10207000C04300052DD4D5F8AC00B0F1007F21D0CD
:102080000EDCA8B1B0F1807F10D116E0D5F8A82001
:10209000D9F8001021F460011143C9F80010E6E7F7
:1020A000B0F1407F13D0B0F1806F10D001240FE069
:1020B000386840F40030386009E00198002102F0EF
:1020C00013FB03E00098002102F09EFB044674B16C
:1020D00026462868C04380011FD4E86CD8B1102878
:1020E0000FD0202812D0302815D0012414E0D5F8C4
:1020F000AC20D9F8001021F0E0611143C9F80010BC
:10210000E7E7386840F40030386004E001980221C5
:1021100002F0EAFA044674B126462888C043C00497
:102120002BD4286EB0F5005F20D00DDCA0B1B0F547
:10213000805F0FD115E06B48EA6C2030016821F018
:10214000300111430160E8E7B0F5405F13D0B0F50E
:10215000804F10D001240FE0386840F40030386020
:1021600009E00198002102F0BFFA03E00098002185
:1021700002F04AFB04468CB126462888C0438004FE
:1021800029D4686EB0F5403F23D010DC08B3B0F519
:10219000803F14D0B0F5003F0FD115E02A6ED8F87B
:1021A000001021F4E0411143C8F80010E5E7B0F554
:1021B000802F0ED0B0F5A02F0BD001240AE001989B
:1021C000012102F091FA03E00098012102F01CFBCA
:1021D000044694B126462888C04340042AD4D5F842
:1021E000B000B0F1405F23D010DC08B3B0F1805FE5
:1021F00014D0B0F1005F0FD115E06A6ED8F800106E
:1022000021F4E0211143C8F80010E4E7B0F1804F59
:102210000ED0B0F1A04F0BD001240AE001980121AB
:1022200002F062FA03E00098012102F0EDFA0446A0
:1022300074B126462888C04300041FD4286FD8B143
:10224000B0F1805F0ED0B0F1005F10D0012414E037
:10225000D5F8B020D9F8001021F0E0411143C9F8B9
:102260000010E7E7386840F40030386004E0019877
:10227000012102F039FA044674B126462868C043A9
:10228000C0011ED4A86CD0B101280ED0022811D0F4
:10229000032814D0012413E02A6FD8F8001021F08D
:1022A00040511143C8F80010E8E7386840F40030A6
:1022B000386004E00198022102F016FA0446ACB13D
:1022C00026462868DFF81CB0C043ABF11C0B400267
:1022D00052D40548016841F480710160FFF78CF920
:1022E000824611E02C44025800480258FA48AA6C71
:1022F000016821F0030111430160E2E7FFF77CF977
:10230000A0EB0A00642835D8F4480068C005F5D56C
:102310008CBBDFF8C4A3B5F8B4100AF1240ADAF8CC
:10232000000001F4407100F44070884211D0DAF8E6
:102330000010DAF8002021F4407142F48032CAF82B
:102340000020DAF8002022F48032CAF80020CAF80F
:102350000010D5F8B400B0F5807F1AD1FFF74CF922
:10236000029012E0FFF748F90299411A41F28830D1
:1023700081420AD9032426462878DFF85CA3C043AB
:102380000AF1080AC00721D03CE0DAF80000800713
:10239000E8D5D5F8B410C1F30120032858460DD074
:1023A000016821F47C510160B5F8B420DAF800101E
:1023B000C2F30B021143CAF80010DDE7C84A0368F4
:1023C00002EA111223F47C511143ECE7E86F18285C
:1023D00016D005DCA0B1082808D0102804D10AE0E6
:1023E00020280DD028280BD001240AE001980121D3
:1023F00002F07AF903E00098012102F005FA0446A0
:1024000064B126462878C04380071ED4A86F0628EA
:1024100019D2DFE800F0160C11161616EA6FDAF87A
:10242000001021F038011143CAF80010EAE70198C2
:10243000012102F059F903E00098012102F0E4F9CA
:1024400004467CB100E0012426462878C0434007BA
:102450001FD4D5F89400062819D2DFE800F0160C36
:1024600011161616AA6FDAF8001021F007011143B1
:10247000CAF80010E9E70198012102F035F903E0FC
:102480000098012102F0C0F90446A4B100E0012443
:1024900026462878C04380062BD4D5F89000B0F1AA
:1024A000405F24D011DC10B3B0F1805F15D0B0F1E3
:1024B000005F10D116E0D5F89420D9F8001021F073
:1024C00007011143C9F80010E3E7B0F1804F0ED0C7
:1024D000B0F1A04F0BD001240AE00198002102F0D6
:1024E00003F903E00098022102F08EF9044694B14A
:1024F00026462878C04340062BD4D5F89C00B0F57A
:10250000406F24D011DC10B3B0F5806F15D0B0F55A
:10251000006F10D116E0D5F89020DAF8001021F005
:10252000E0411143CAF80010E3E7B0F5805F0ED038
:10253000B0F5A05F0BD001240AE00198002102F061
:10254000D3F803E00098022102F05EF9044694B14A
:1025500026462878C04300062BD4D5F8A000B0F555
:10256000C04F24D011DC10B3B0F5005F15D0B0F52A
:10257000804F10D116E0D5F89C20D9F8001021F436
:10258000E0511143C9F80010E3E7B0F5004F0ED059
:10259000B0F5204F0BD001240AE00198002102F091
:1025A000A3F803E00098022102F02EF9044654B18A
:1025B00026462878C04300071ED4D5F88400B0F51D
:1025C000805F0AD00FE0D5F8A020D9F8001021F4E0
:1025D00060411143C9F80010EBE70098022102F0B6
:1025E00013F900B10126D5F88420DAF8001021F49F
:1025F00040511143CAF800102878C043C00613D4D4
:10260000D5F89800B0F5807F05D10098022102F03E
:10261000FBF800B10126D5F89820D9F8001021F474
:1026200040711143C9F800102868C043000316D454
:10263000D5F8A40038B1B0F5803F09D0B0F5003F1F
:102640000BD001240AE00198002102F04DF803E0CC
:102650000098022102F0D8F804468CB1264628687A
:10266000C043400322D4D5F88800B0F5801F11D0B4
:10267000B0F5001F13D0B0F5401F15D0012414E0B1
:10268000D5F8A420D9F8001021F440311143C9F83D
:102690000010E4E7386840F40030386004E0009847
:1026A000012102F0B1F804465CB126462868C04317
:1026B000C00323D4286DA8B1B0F5803F17D0012402
:1026C0001BE0D5F88820DAF8001021F440111143FE
:1026D000CAF80010EAE700004C44025800480258CB
:1026E000CFFFFF00386840F40030386004E0019804
:1026F000022101F0F9FF0446E4B126462868C043F0
:10270000800005D40098022102F07EF800B1012675
:102710002868C04380031BD4D5F88000B0B1B0F561
:10272000807F0FD0B0F5007F10D0B0F5407F0DD086
:1027300001240CE05A482A6D016821F480311143CC
:102740000160DBE7386840F400303860ECB32646BF
:102750002868C043C00207D46A6FD8F8001021F07F
:1027600000411143C8F800102868C043C00008D4D5
:10277000D5F8B820DBF8001021F480411143CBF8E4
:1027800000102868C043800207D4EA6ED8F8001011
:1027900021F080711143C8F800102868C043400040
:1027A0000CD4DBF8001021F40041CBF80010DBF86A
:1027B0000010D5F8BC201143CBF800102868C043A6
:1027C00008D437486A6D016800E018E021F04051F4
:1027D000114301602868C043000208D4D5F88C205A
:1027E000DAF8001021F440011143CAF800102879EA
:1027F0000024C04300F0010020430AD00FE0D5F8C8
:102800008020DAF8001021F440711143CAF800105A
:102810009EE70198002101F067FF00B10646287984
:10282000C04300F00200204305D10198012101F0CE
:102830005BFF00B106462879C04300F00400204346
:1028400005D10198022101F04FFF00B10646287919
:10285000C04300F00800204305D10098002101F09A
:10286000D3FF00B106462879C04300F01000204392
:1028700005D10098012101F0C7FF00B10646287973
:10288000C04300F02000044304D10098022101F06D
:10289000BBFF00B916B10120BDE8FE8F0020FBE7A9
:1028A0004C4402582DE9F05F04000F467ED0DFF85B
:1028B0003882D8F8000000F00F00B8420CD2D8F8E7
:1028C000001021F00F013943C8F80010D8F80000BB
:1028D00000F00F00B84269D12078844D40070AD536
:1028E0002069296801F07001884204D9296821F023
:1028F00070010143296020787C4E361D00070AD5FF
:102900006069316801F07001884204D9316821F0B2
:102910007001014331602078C0060AD5A069316892
:1029200001F4E061884204D9316821F4E061014397
:1029300031602078DFF8B4B180060BF1080B0CD5BC
:10294000E1695846DBF8002002F07002914204D998
:10295000026822F070020A430260207880070AD5DC
:10296000E068296801F00F01884204D9296821F044
:102970000F01014329602078C0073ED05B49A2685F
:102980002868183920F470601043286060680228B5
:1029900018D0032819D00968012819D0490700293F
:1029A0004ADADFF848A1AAF1080A00E044E0DAF8C0
:1029B000002022F007020243CAF80020FEF71CFEA6
:1029C000814612E009688903E9E709688901E6E7B9
:1029D000C905E4E7FEF710FEA0EB090141F28830DB
:1029E000814202D90320BDE8F09F6168DAF8000057
:1029F00000F03800B0EBC10FECD1207880070AD589
:102A0000E068296801F00F01884204D2296821F0AA
:102A10000F0101432960D8F80010404601F00F0172
:102A2000B9420BD9016821F00F01394301600068F8
:102A300000F00F00B84201D00120D4E72078400711
:102A40000AD52069296801F07001884204D22968FA
:102A500021F0700101432960207800070AD56069E0
:102A6000316801F07001884204D2316821F07001B0
:102A7000014331602078C0060AD5A069316801F4AD
:102A8000E061884204D2316821F4E06101433160A1
:102A9000207880060CD5E1695846DBF8002002F06A
:102AA0007002914204D2026822F070020A4302606E
:102AB00000F06CF80E492A682B68C2F3032203F079
:102AC0000F038A5CC95C02F01F0201F01F01D040B5
:102AD000084A20FA01F111600749086007480068B8
:102AE000BDE8F05FFEF7C4BD002000521844025854
:102AF0005C58000814000024100000240800002482
:102B000030B500F043F80B4A0B490C4B15681468BC
:102B1000C5F3032204F00F048A5C095D02F01F0272
:102B200001F01F01D040064A20FA01F1196010603F
:102B3000084630BD184402585C58000814000024B0
:102B40001000002400B5FFF7DBFF05490968054ABE
:102B5000C1F30211515C01F01F01C84000BD00002B
:102B60001C4402585C58000800B5FFF7C9FF05492E
:102B70000968054AC1F30221515C01F01F01C840F8
:102B800000BD00001C4402585C580008454970B55F
:102B900045480968434B103B11F0380208D0011139
:102BA000082A03D0102A0BD0182A0BD0084670BD73
:102BB00019688906FBD51968C1F3C101C84070BD09
:102BC0003A4870BD3749374D18310C1D24350A6815
:102BD000096826682D6802F0030406F00102C1F3BB
:102BE0000511C5F3CC0515FB02F200EE102AB8EE74
:102BF000400AE9B32F4ADFED2E0AB7EE001A6CB196
:102C0000DFED2D1A012C01D0022C43D002EE101A58
:102C10001068F8EE422A81EEA22A1EE01C68A40683
:102C200011D51B6801EE901A1168C3F3C103F8EEC9
:102C3000612AD84001EE900AC1F30800F8EE611A4B
:102C400081EEA22A0BE001EE901ADFED1C2A00BFF4
:102C5000F8EE611A106882EEA12AC0F3080001EEB6
:102C6000900AF8EE611A40EE201A31EE810A00E077
:102C700015E022EE000A1068C0F34620401C00EE6A
:102C8000900AF8EE600A80EE201ABCEEC10A10EE3F
:102C9000100A70BD01EE901ADFED092AD8E7002076
:102CA00070BD0000104402580090D00340787D01B0
:102CB00000000039304402580024744A0024744C47
:102CC00020BCBE4B2DE9F05F04007DD0FF4F207883
:102CD000FE4D1837DFF8F493103DC00748D0D9F8FF
:102CE0000000396800F03800102815D0182803D1EA
:102CF00001F0030002280FD06068B0F5803F12D0C9
:102D000010B1B0F5A02F18D0286820F480302860CA
:102D1000286820F4802009E02868800328D56068AE
:102D20000028D2D024E0286840F480302860606811
:102D300088B1FEF761FC064609E0286840F480206F
:102D40002860F0E7FEF758FC801B64286FD82868DD
:102D50008003F7D50CE0FEF74FFC064605E000BF08
:102D6000FEF74AFC801B6428F0D828688003F7D45B
:102D7000207841F20308D54E0C3E800769D5D9F87A
:102D80000000396810F038000ED0182801D18807EB
:102D90000AD0E06890B3296821F019010143296045
:102DA000FEF72AFC824631E02868400702D5E06839
:102DB00000288AD0E168286820F0190008432860BC
:102DC000FEF71AFC824607E0DFE000BFFEF714FCC6
:102DD000A0EB0A000228B9D828684007F6D500BF42
:102DE000FEF704FC40451BD82069402812D031680A
:102DF00021F47C3141EA003030602AE018E000BF65
:102E0000FEF7FAFBA0EB0A0002289FD828684007CB
:102E1000F6D5E5E7306820F47C3040F40030EBE78D
:102E2000207C316821F0FE4141EA0060E4E70DE1D9
:102E3000286820F001002860FEF7DEFB824605E0EE
:102E4000FEF7DAFBA0EB0A0002288DD828684007BD
:102E5000F6D42078C0065DD5D9F80000DFF86CB252
:102E6000396800F03800ABF1040B082810D018289E
:102E700003D101F0030001280AD0E0690028286886
:102E800038D040F080002860FEF7B6FB824623E091
:102E90002868C00523D5E069802876D11FE0206A24
:102EA000202821D0316821F0F84141EA806030606B
:102EB00030E000BF94F82010DBF8002022F07C52B4
:102EC00042EA0161CBF8001024E000BFFEF794FB5A
:102ED000A0EB0A00022898D82868C005F6D5FEF7AE
:102EE00085FB4045E6D8DAE7306820F0F84040F04E
:102EF0008040DCE720F080002860FEF77DFB06467E
:102F000005E000BFFEF778FB801B02289DD82868EB
:102F1000C005F7D42078000729D56C486169643072
:102F200000298046016811D041F001010160FEF7DF
:102F300063FB064605E000BFFEF75EFB801B022830
:102F4000C9D8D8F800008007F6D510E021F00101BB
:102F50000160FEF751FB064605E000BFFEF74CFBA3
:102F6000801B022872D8D8F800008007F6D4207899
:102F7000800623D5A0690028286810D040F480502E
:102F80002860FEF739FB064605E036E1FEF734FB24
:102F9000801B02285AD828688004F7D50EE020F458
:102FA00080502860FEF728FB064604E0FEF724FB6D
:102FB000801B02284AD828688004F7D4207840076C
:102FC0004FD5DFF80C81D8F8001041F48071C8F8B3
:102FD0000010FEF711FB064605E000BFFEF70CFBF4
:102FE000801B642832D8D8F80000C005F6D5374ECB
:102FF000A068603601280AD008B1052813D03068CF
:1030000020F001003060306820F0040002E03068F9
:1030100040F001003060A06841F2883A90B1FEF7BC
:10302000EBFA80460AE0306840F004003060EEE7DA
:10303000FEF7E2FAA0EB0801514507D83068800797
:10304000F6D50EE0FEF7D8FA804607E084E000BF30
:10305000FEF7D2FAA0EB080151457DD83068800711
:10306000F6D4606AB0B3DFF86480D9F8001008F1D4
:1030700020084FF6F87B08F10409C1F3C2010329C7
:10308000A8F1040A69D00228286820F0807028601E
:1030900003D0FEF7B1FA044684E0FEF7ADFA064627
:1030A00005E000BFFEF7A8FA801B022877D8286841
:1030B0008001F7D4E26A40F2F331386854F8283FCF
:1030C000884340EA02101843386004E01044025874
:1030D00000480258B5E0217B434622894FF4FE0C9C
:1030E000208A4FF0FE474902267D521E401EA1F560
:1030F0000071C2F308088AB2761E0CEA004042EA68
:1031000008020243504607EA06610A431A60DAF8E9
:10311000002022F00102CAF80020D9F80020266A17
:1031200022EA0B0242EAC602C9F80020DAF80010CF
:10313000A26921F00C011143CAF800100168E2698C
:1031400021F0020111430160016841F48031016006
:10315000016841F4003101E021E027E001600168ED
:1031600041F480210160016841F00101016028689B
:1031700040F080702860FEF73FFA044605E000BF8B
:10318000FEF73AFA001B022809D828688001F7D513
:1031900057E000BFFEF730FA001B022802D90320D7
:1031A000BDE8F09F28688001F4D44AE0396801281E
:1031B000D8F8000021D0A26A01F0030393421CD189
:1031C000E26AC1F305118A4217D1216BC0F30802EC
:1031D000491E8A4211D1616BC0F34622491E9142B9
:1031E0000BD1A16BC0F30642491E914205D1E16BA0
:1031F000C0F30660491E814201D00120D0E7A16CD6
:103200004E46D9F80000C0F3CC00814219D0DAF85C
:103210000000554620F00100CAF80000FEF7ECF966
:103220004FEA0007FEF7E8F9B842FBD0A26C30681D
:1032300020EA0B0040EAC2003060286840F001003C
:1032400028600020ACE7401EB0F1807F10B501D3AC
:10325000012010BD4FF0E02460610F21601702F0E3
:1032600007FA0020A0610721216110BD7047704757
:1032700070470000F0B590F83C20012A3BD01F4E6B
:10328000012480F83C40022280F83D2002681C4D59
:103290005368B242D2F808C001D0AA4203D14F68A5
:1032A00023F470033B430F6823F070031F43576000
:1032B0000268B24213D0B2F1804F10D0114B9A4243
:1032C0000DD0114B9A420AD0104B9A4207D0AA4215
:1032D00005D00F4B9A4202D00E4B9A4204D1896816
:1032E0002CF0800319439160002180F83D4080F864
:1032F0003C100846F0BD0220F0BD00000000014077
:10330000000401400004004000080040000C0040A0
:10331000001800400040014010B5040003D094F8AC
:103320003D0010B107E0012010BD002084F83C00F2
:10333000204600F023F8022084F83D002068211D7B
:1033400001F0C4FB012084F8480084F83E0084F8B2
:103350003F0084F8400084F8410084F8420084F87B
:10336000430084F8440084F8450084F8460084F85B
:10337000470084F83D00002010BD000010B586B065
:10338000044614216846FCF7EDFF2A482168814273
:1033900022D12948016841F001010160006800F074
:1033A0000100059024481038016841F010010160C7
:1033B00000680123022200F01000059000204FF465
:1033C000D44100916946CDE90120CDE903031B48B2
:1033D000FDF7ECFF06B010BD1748194A08389142B6
:1033E00007D1016841F002010160006800F00200AD
:1033F00009E0144A914208D1016841F004010160DA
:10340000006800F004000590E4E70F4A9142E1D122
:10341000016841F01001016000680022114600F0CF
:10342000100005903620FEF7ADF93620FEF79CF926
:10343000D0E7000000000140F0440258001002589C
:1034400000040040000800400010004090F83D10CB
:10345000012901D001207047174A022180F83D1050
:103460000168CB6843F00103CB600068904214D040
:10347000B0F1804F11D0114988420ED010498842D6
:103480000BD01049884208D00F49884205D00F4917
:10349000884202D00E49884207D181680D4A114006
:1034A000062906D0B1F5803F03D0016841F0010143
:1034B000016000207047000000000140000400404F
:1034C00000080040000C00400004014000180040CB
:1034D000004001400700010070B5044690F83C0030
:1034E0000025012814D03A4B012684F83C600220C4
:1034F00084F83D0022689068184020F47F40906076
:10350000086870282FD010DC10F00F0F03D022E0D5
:103510004FF0020070BD4FEA2012072A1BD2DFE8ED
:1035200002F0535353534B394100B0F1101F4BD0AD
:1035300009DCB0F5805F0FD0B0F5005F1ED0B0F5AC
:10354000801F08D140E0A0F5801120393CD010291F
:103550003AD0202938D0012584F83D60002084F835
:103560003C00284670BD4A682068D1E9021301F08A
:1035700022FB2068816841F0770109E04A682068F1
:10358000D1E9021301F017FB2068816841F4804102
:103590008160E1E7CA684968206801F0B9FC2068E9
:1035A000502106E0CA684968206801F003FD2068E0
:1035B000602101F009FBCFE7CA684968206801F083
:1035C000A7FC20684021F4E7226801461046F0E796
:1035D00088FFCEFF70B505460068B0F1804F27D157
:1035E000287F012824D1194C194A207898B1012844
:1035F0001ED102211046FDF7EFFF217C884217D132
:103600000021284600F0F4FBA0606168884210D9D0
:10361000A0EB010013E04FF002011046FDF7DCFFC4
:1036200000212074284600F0E3FB60600121217036
:1036300070BD05D242F21072A2EB01010844E060B5
:103640004FF000002070607470BD0000D0010024B5
:10365000000002582DE9F047054690F83C0000268E
:103660000C46012810D0012085F83C0072B1042AD4
:103670001CD0082A2CD00C2A52D00126002085F814
:103680003C003046BDE8F0870220FBE7E36828688D
:10369000D4E9001201F04EFC2868816921F00C0188
:1036A000816128688169A26811430FE0E368286896
:1036B000D4E9001201F090FC2868816921F440618E
:1036C000816128688169A26841EA02218161D5E7A8
:1036D00028684FF4206CD4E90032217B076AD0F8C7
:1036E00020800CEA0323090727F4206728F4807C54
:1036F000C0F820C0D0F81CC03B432CF00307174390
:1037000027F0F00242EA1161C16103622868C169D1
:1037100021F00C01C1612868A268C169114328E049
:10372000D4E9002328684FF42048E1684FF6FF7C75
:103730009946036A076A08EA023223F420431A43CF
:103740000CEA013127F480570762C36923F44077FC
:1037500047EA092323F470431943C16102622868D0
:10376000C16921F44061C1612868A168C26942EA67
:103770000121C16182E710B5040003D094F83D0037
:1037800010B107E0012010BD002084F83C00204665
:1037900000F022F8022084F83D002068211D01F08D
:1037A00095F9012084F8480084F83E0084F83F0031
:1037B00084F8400084F8410084F8420084F8430013
:1037C00084F8440084F8450084F8460084F84700F3
:1037D00084F83D00002010BD10B586B004461421C9
:1037E0006846FCF7BFFD2068B0F1804F27D115482F
:1037F000016841F001010160006800F001000590DE
:1038000010480838016841F0010101600068012397
:10381000052100F001000590002000910222694678
:10382000CDE90120CDE903030748FDF7BFFD0022E4
:103830001C201146FDF7A6FF1C20FDF795FF06B0E2
:1038400010BD0000E84402580000025830B504469C
:103850004FF0000579B1042912D0082915D00C29A0
:1038600018D0102919D094F8430000BF94F84720CD
:10387000012817D114E094F83E0094F84420F7E7AB
:1038800094F83F0094F84520F2E794F8400094F84B
:103890004620EDE794F84100E8E794F84200E5E7B8
:1038A000012A01D0012030BD4FF0020079B1042976
:1038B00016D008291DD00C294FD0102950D084F8DB
:1038C00043000C2984F847004DD0012543E084F8DB
:1038D0003E0084F844002068C26842F0020210E012
:1038E00084F83F0084F845002068C26842F0040272
:1038F00007E084F8400084F846002068C26842F07F
:103900000802C2602068012201F048F918492068C5
:10391000884214D0B0F1804F11D0164988420ED0A1
:10392000154988420BD01549884208D0144988426D
:1039300005D01449884202D01349884207D18168D2
:10394000124A1140062906D0B1F5803F03D0016824
:1039500041F001010160284630BD84F84100B0E724
:1039600084F84200ADE72068C26842F01002C8E760
:10397000000001400004004000080040000C00402E
:103980000004014000180040004001400700010011
:103990002DE9F041044600680027C6680569A907BB
:1039A00013D5B10711D5FA1E0261012121772068D4
:1039B00080698007204602D0FFF70CFE04E000F08B
:1039C000B5F8204600F077F92777680716D5700715
:1039D00014D5226802206FF004011161207720685D
:1039E000806910F4407F204602D0FFF7F3FD04E029
:1039F00000F09CF8204600F05EF92777280715D5DF
:103A0000300713D5226804206FF008011161207778
:103A10002068C0698007204602D0FFF7DBFD04E084
:103A200000F084F8204600F046F92777E80616D51E
:103A3000F00614D5226808206FF01001116120777C
:103A40002068C06910F4407F204602D0FFF7C2FD15
:103A500004E000F06BF8204600F02DF92777E80726
:103A600008D0F00706D021686FF0010008612046F9
:103A700000F0AAF9280601D4A80408D5300606D516
:103A800021686FF4025008612046FFF7F0FBE8055B
:103A900008D5300606D521686FF48070086120468D
:103AA000FFF7E4FB680608D5700606D521686FF0BD
:103AB00040000861204600F0B1F9A8060AD5B0061A
:103AC00008D521686FF0200008612046BDE8F0416C
:103AD000FFF7CEBBBDE8F08110B586B004461421D7
:103AE0006846FCF73FFC0E492068884215D10D4816
:103AF000016841F008010160006800214FF4704244
:103B000000F00800059002200092CDE90101CDE906
:103B1000031005486946FDF749FC06B010BD0000DA
:103B200000080040E0440258000C0258704770B58D
:103B3000044690F83C0000260D4601280BD00120D9
:103B400084F83C000C2A4AD007DC82B1042A20D039
:103B5000082A06D131E0022070BD102A53D0142A61
:103B600063D00126002084F83C00304670BD2068F8
:103B700001F034F82068816941F008018161206812
:103B8000816921F00401816120682A6981691143FA
:103B900011E0206801F074F82068816941F4006147
:103BA00081612068816921F48061816120682969CF
:103BB000826942EA01218161D4E7206801F0ACF812
:103BC0002068C16941F00801C1612068C16921F024
:103BD0000401C16120682A69C169114311E02068AC
:103BE00001F0E6F82068C16941F40061C161206814
:103BF000C16921F48061C16120682969C26942EA12
:103C00000121C161AEE7206801F00EF92068416D25
:103C100041F0080141652068416D21F004014165D2
:103C200020682A69416D114311E0206801F036F9DE
:103C30002068416D41F4006141652068416D21F4C7
:103C40008061416520682969426D42EA0121416530
:103C500088E710B5040003D094F83D0010B107E0E8
:103C6000012010BD002084F83C00204600F022F81E
:103C7000022084F83D002068211D00F027FF01206C
:103C800084F8480084F83E0084F83F0084F840003F
:103C900084F8410084F8420084F8430084F844002A
:103CA00084F8450084F8460084F8470084F83D0015
:103CB000002010BD7047704730B504464FF0020237
:103CC00069B1042912D0082917D00C291CD0102959
:103CD00021D094F84300012824D0012030BD94F86D
:103CE0003E000128F9D184F83E201DE094F83F0001
:103CF0000128F2D184F83F2016E094F84000012812
:103D0000EBD184F840200FE094F841000128E4D181
:103D100084F8412008E094F842000128DDD184F8BD
:103D2000422001E084F843200122206800F036FFA1
:103D30001B4B20681B491C4A984209D0884207D077
:103D4000904205D0194DA84202D0194DA84203D186
:103D5000456C45F4004545642068984212D0B0F1A6
:103D6000804F0FD0134B98420CD0134B984209D080
:103D7000124B984206D0884204D01149884201D0A3
:103D8000904207D181680F4A1140062906D0B1F54B
:103D9000803F03D0016841F001010160002030BD87
:103DA0000000014000040140004001400044014087
:103DB000004801400004004000080040000C0040A2
:103DC00000180040070001000849884209D1A1F508
:103DD000A270417C0A2905D20278012A01D1491C2E
:103DE00041747047002101707047000014030024E3
:103DF00002464FF0000041B1042909D008290AD039
:103E00000C2901D11068006C70471068406B704736
:103E10001068806B70471068C06B7047704730B592
:103E200090F88410012918D0012280F884202421E0
:103E3000C0F888100022202401680B680D6823F068
:103E4000005325F001050D60426601680B60C0F863
:103E5000884080F88420104630BD022030BD70B507
:103E6000044690F8840001281DD0012284F88420A3
:103E70002420C4F8880020680568026822F0010246
:103E800002602068826822F060620A4382602046F5
:103E900001F0BEF82268202100201560C4F88810C7
:103EA00084F8840070BD022070BD70B5044690F89F
:103EB000840001281DD0012284F884202420C4F825
:103EC000880020680568026822F00102026020680C
:103ED000826822F060420A438260204601F098F82E
:103EE0002268202100201560C4F8881084F884001E
:103EF00070BD022070BD10B5040003D0D4F8880056
:103F000010B107E0012010BD002084F88400204695
:103F100000F026F82420C4F888002068016821F009
:103F200001010160A06A10B1204601F093F820461B
:103F300001F074F90128E6D02068416821F490412D
:103F400041602068816821F02A0181602068016851
:103F500041F0010101602046BDE8104001F0DEB8EB
:103F600010B5B6B00446142130A8FCF7FBF9C02107
:103F70006846FCF7F7F91949206888422BD10020E0
:103F80001E9002210446CDE900106846FDF7B4FFFB
:103F900008B1FCF7A9FA1248016841F080410160BC
:103FA000006800F0804035900D480838016841F005
:103FB00010010160006830AB022100F01000359064
:103FC0004FF4C070072283E81300064830A9CDE9FA
:103FD0003342FDF7EBF936B010BD00000078004029
:103FE000E8440258001002582DE9F8430446D0F87E
:103FF0008800984616460D46202802D00220BDE8CB
:10400000F883A5B19EB10021C4F890102120C4F816
:1040100088001834FDF7F0FA814654F8100CA68792
:10402000E6872027183CB0F5805F02D003E001202E
:10403000E5E7206910B12E46002510E000260EE0CD
:104040008021204601F0C0FAC0B9DEB116F8010B9C
:1040500021688862B4F85600401EA4F85600B4F8EF
:1040600056004B464FF00002CDF800800028E7D103
:104070004FF04001204601F0A7FA48B1C4F888701B
:104080000320BCE735F8020B2168C0F30800E0E725
:10409000C4F888700020B2E7FEE78068C0F3C00073
:1040A00070478068C0F3800070478068C0F380006C
:1040B000704710B5042404EAD1540723C1F3045116
:1040C00020448B408A40416999431143416110BDAE
:1040D00030B58BB0002468461C21079408940994DD
:1040E000FCF740F91B480425194901236A0480E8BC
:1040F0001600C0E903450475447583610477446282
:104100008462C4620463446380F83840FCF7A2FD13
:1041100008B1FCF7E9F90F4807A90794FCF71AFB67
:1041200008B1FCF7E1F90C48062140F2FF72039256
:104130008DE8130007486946CDE904548DF819400D
:10414000FCF79CFB002801D0FCF7CEF90BB030BD8A
:10415000002002401C0000241000C01030B587B0C1
:104160001C216846FCF7FEF818480425164900246F
:104170006A04012380E81600C0E90345047544750C
:104180008361047744628462C4620463446380F898
:104190003840FCF75FFD08B1FCF7A6F90C48062192
:1041A00040F2FF7203928DE8130008486946CDE99A
:1041B00004548DF81940FCF761FB002801D0FCF78E
:1041C00093F907B030BD00000021024080000024B8
:1041D0001000C0101748002170B5154D022405606D
:1041E000012381601025C16004220174417481742F
:1041F0004561C0E90634C0E908438362C362C0E98F
:104200000C318163C163C0E91012C0E91212C0E928
:1042100014128165C1650166C0E91912FCF744FFFB
:10422000002803D0BDE87040FCF75EB970BD000007
:1042300000A00040300100242DE9F04786B0142191
:104240006846FCF78FF84248016841F010010160B0
:10425000016801F010010591016841F0040101605D
:10426000016801F004010591016841F080010160DD
:10427000016801F080010591016841F001010160D0
:10428000016801F001010591016841F0020101603E
:10429000016801F002010591016841F00801016027
:1042A000006800222B4F3C2100F0080005903846A2
:1042B000FDF797F9DFF8A080012240F62271404611
:1042C000FDF78FF9DFF89490002240214846FDF772
:1042D00088F9DFF88CA04FF4806600223146504602
:1042E000FDF77FF900224046DD21FDF77AF9002431
:1042F000694601253C200090CDE9015438460394DD
:10430000FDF754F8FA206946CDE9000450460294BE
:10431000FDF74CF840F6FF700090CDE90154694676
:1043200040460394FDF742F840200090CDE9015447
:10433000694648460394FDF739F800966946CDE989
:10434000015450460394FDF731F806B0BDE8F087FC
:10435000E044025800100258000C025800080258AD
:104360000000025810B58CB0304800244FF6FF72A0
:104370002D4980230A940794089409940094019489
:1043800002940394049405940694C0E90014C0E9CF
:1043900002420461C0E90543FEF7BEFF08B1FCF725
:1043A000A3F84FF480500790204807A9FFF794F82E
:1043B00008B1FCF799F81D48FFF7DDF908B1FCF7E3
:1043C00093F81A486946009401940294FEF752FF4C
:1043D00008B1FCF789F80120002203A9CDE90340C8
:1043E000124805940694FFF735F908B1FCF77CF8FC
:1043F0000E48042203A9FFF72DF908B1FCF774F861
:104400000A48082203A9FFF725F908B1FCF76CF860
:1044100006480C2203A9FFF71DF9002801D0FCF77C
:1044200063F80CB010BD000000000140E40100245E
:1044300030B587B01D48002440F27F224FF0804104
:1044400042F20F7300948025019402940394049423
:104450000594069480E816008561C0E90334FFF7EF
:104460008AF908B1FCF740F81048694600940294B4
:10447000FEF700FF08B1FCF737F80120002203A97E
:10448000CDE90340094805940694FFF7E3F808B125
:10449000FCF72AF80548082203A9FFF7DBF80028F3
:1044A00001D0FCF721F807B030BD00003002002435
:1044B00010B588B0174800244FF6FF7214490094D5
:1044C000019402940394049405940694C0E90014A2
:1044D000C0E9024204618461FEF71EFF08B1FCF7E7
:1044E00003F84FF4805000900A486946FEF7F4FF45
:1044F00008B1FBF7F9FF074804A904940694FEF7F6
:10450000B9FE002801D0FBF7EFFF08B010BD000096
:10451000000400407C02002430B58FB000241C2130
:10452000009407A8019402940394049405940694BB
:10453000FBF718FF2D4842F20F723F232A4D8021CE
:10454000C0E9024204618161C0E90053FEF7E4FE64
:1045500008B1FBF7C9FF4FF480500090234869462B
:10456000FEF7BAFF08B1FBF7BFFF2048FFF771FB6A
:1045700008B1FBF7B9FF1D4804A904940694FEF79F
:1045800079FE08B1FBF7B0FF07AA42F21071602074
:1045900082E813001548002207A90B94FFF7C7FA19
:1045A00008B1FBF7A1FF114802250422099507A9CC
:1045B000FFF7BDFA08B1FBF797FF0C48082207A9DF
:1045C0000994FFF7B4FA08B1FBF78EFF07480C22F5
:1045D00007A90995FFF7ABFA08B1FBF785FF034878
:1045E000FFF77AFA0FB030BD00080040C80200247F
:1045F0003EB51048002442F20F7140F27F22009431
:1046000001940294C0E90241094B8461C0E900327F
:10461000FEF782FE08B1FBF767FF06486946009483
:104620000294FEF727FE002801D0FBF75DFF3EBD98
:1046300000100040140300241848002110B5164C47
:104640000C224FF4E1330460C0E90131C160C0E9DC
:1046500004128161C161016241628162FFF74BFC1A
:1046600008B1FBF741FF0D480021FFF71EFC08B120
:10467000FBF73AFF09480021FFF7F1FB08B1FBF710
:1046800033FF0648FFF7CBFB002803D0BDE81040FE
:10469000FBF72ABF10BD0000007800406003002433
:1046A000FEE7FEE77047F0B5B1B0C0216846FBF702
:1046B00059FE0022022004234FF400218DE80E0051
:1046C0000924CDE90340C025299206AA0590202699
:1046D0002F0182E8E1006846FDF70EFC002801D0BA
:1046E00072B6FEE731B0F0BD2DE9F047454D044606
:1046F00089464FF0000A2868C04380070AD0414E1F
:10470000283E306820F080603060FCF775FF074677
:10471000B04608E00120BDE8F08700BFFCF76CFF61
:10472000C01B022867D8D8F800000001F6D4206822
:1047300029684FF4FE0721F47C313E0241EA003043
:104740002860207AA389B4F804C040022D4D2D4979
:104750005B1E227CACF1010C1035091DA0F5007028
:1047600080B2521ECCF3080C07EA034340EA0C0067
:10477000184306EA0262104328600868626920F064
:10478000C000104308600A68A06922F020020243BA
:104790000A60281D0A6822F010020A6002684FF6BB
:1047A000F873E4699A4342EAC40202600868B9F106
:1047B000000F40F010020A6011D00868B9F1010F33
:1047C00011D040F400100860D8F80000444640F0D2
:1047D0008060C8F80000FCF70FFF05460DE0086890
:1047E00040F40020EFE740F48010ECE7FCF704FF12
:1047F000401B022801D903208DE720680001F5D570
:10480000504688E7284402582DE9F047454D0446B4
:1048100089464FF0000A2868C04380070AD0414EFD
:10482000283E306820F080503060FCF7E5FE0746F7
:10483000B04608E00120BDE8F08700BFFCF7DCFED1
:10484000C01B022867D8D8F800008000F6D4208862
:1048500029684FF4FE0721F07C713E0241EA0050C6
:104860002860207AA389B4F804C040022D4D2D4958
:104870005B1E227CACF1010C1835091DA0F50070FF
:1048800080B2521ECCF3080C07EA034340EA0C0046
:10489000184306EA0262104328600868626920F43F
:1048A0004060104308600A68A06922F40072024365
:1048B0000A60281D0A6822F480720A6002684FF6B6
:1048C000F873E4699A4342EAC40202600868B9F1E5
:1048D000000F40F480720A6011D00868B9F1010F2E
:1048E00011D040F080700860D8F80000444640F0D5
:1048F0008050C8F80000FCF77FFE05460DE0086810
:1049000040F48000EFE740F40000ECE7FCF774FEB1
:10491000401B022801D903208DE720688000F5D5CF
:10492000504688E7284402587047FCF76BBE0000E9
:10493000F0B59DB04C216846FBF714FD202113A86B
:10494000FBF710FD0220FCF74FFF21490A682148C0
:1049500022F001020A600968016821F4404141F433
:10496000804101600168002401F440411B9101680D
:104970008904FCD502200090012603964025049569
:1049800004210B91CDE90904092203230C26CDE96A
:104990000C20CDE90E30CDE910609F0268461297D9
:1049A000FEF790F908B172B6FEE73F20CDE9130497
:1049B00015940121169413A8CDE9174519941A945A
:1049C000FDF770FF002801D072B6FEE71DB0F0BD04
:1049D0002C040058184802582C48F0B52C4A01689D
:1049E00041F470010160106800F00F00072804D244
:1049F000106820F00F00C01D106026490020254CD3
:104A000010340B68244D43F001030B6020600B68E9
:104A10002B400B60136803F00F03072B04D91368B6
:104A200023F00F03DB1D13601A4C1C4A18341C4B77
:104A3000261D371D2060174C1A4D28343060261D66
:104A40003860371D23603B1D35601C1D3A60251DF5
:104A50002E1D1860331D22602860326018600A68BD
:104A60000C4B114C22F4802260330A6018602068DD
:104A70006FF30F00B0F1005F03D20C490120C1F8C1
:104A8000080143F2D2000A490860F0BD88ED00E059
:104A900000200052004402587FEDF6EA8002010136
:104AA000000202020000FF010010005C00800051C3
:104AB000004000520148FEF76BBF000030020024A6
:104AC0000148FEF765BF0000140300242DE9F047FC
:104AD0002A4B4FF0804A2A4D02689842294E2A4FAD
:104AE0002A4C09D0504507D0A84205D0B04203D087
:104AF000B84201D0A04205D1D1F804C022F0700222
:104B00004CEA0202DFF888C0DFF888809842DFF8BC
:104B100088900FD050450DD0A8420BD0B04209D09C
:104B2000B84207D0A04205D0604503D0404501D02F
:104B3000484503D1CD6822F440722A434D6922F0E2
:104B400080022A43026098428A68C2620A688262CE
:104B500007D0A04205D0604503D0404501D048456C
:104B600001D109690163012141610169C90703D0CC
:104B7000016921F001010161BDE8F08700000140F9
:104B80000004004000080040000C00400004014008
:104B900000400140004401400048014010B5046A53
:104BA000012301F01F018B409C4304628A40016A8B
:104BB0001143016210BD42EA032283680A4323F4D1
:104BC0007F410A4382607047034B82681A400A4360
:104BD00042F00701816070478FFFCFFF2DE9F04F52
:104BE000DFF88480214EDFF88890DFF888B0026A11
:104BF000036AB042DFF880A022F0020C1F4F23F0BE
:104C000001020262426885698B680C6805EA080542
:104C100025F0030543EA0C0344EA050407D04845A0
:104C200005D0584503D0504501D0B84205D1CD68D4
:104C300023F008031D4325F00403B04207D0484584
:104C400005D0584503D0504501D0B84205D122F4D3
:104C50004076D1E9055235432A4342608461496870
:104C600041630362BDE8F08F8FFFFEFF000001404B
:104C70000004014000400140004401400048014060
:104C8000F0B5DFF87CE01F4C1F4D026A036AA042BA
:104C900022F0200623F01003036242688369D1F8F2
:104CA00008C00F6803EA0E0323F4407E46EA0C13A3
:104CB0004EEA072601D0A84206D1CF6823F0800330
:104CC00043EA071323F04003A0420AD0A84208D0C9
:104CD0000E4CA04205D00E4CA04202D00D4CA0427A
:104CE00007D1D1E9054522F4406242EA840242EA52
:104CF000850242608661496881630362F0BD0000FD
:104D0000FF8FFFFE00000140000401400040014011
:104D10000044014000480140F0B5DFF87CE01F4D41
:104D20001F4E026A036AA84222F4007723F48073BC
:104D300003624368C269D1F808C002EA0E020C6837
:104D400022F0030E47EA0C2244EA0E0401D0B042DE
:104D500006D1CF6822F4006242EA072222F4806280
:104D6000A8420AD0B04208D00E4DA84205D00E4D40
:104D7000A84202D00D4DA84207D1D1E9055623F42F
:104D8000405343EA051343EA06134360C46149688C
:104D9000C1630262F0BD00008FFFFEFF0000014012
:104DA000000401400040014000440140004801402F
:104DB000F0B5046A026A22F4805202624268C36952
:104DC00024F40054DFF848C08E680D6803EA0C0331
:104DD000104F23F4407344EA0634B84243EA0523F3
:104DE0000BD00D4DA84208D00C4DA84205D00C4D5B
:104DF000A84202D00B4DA84204D14D6922F4804252
:104E000042EA85124260C361496801640462F0BDF0
:104E1000FF8FFFFE00000140000401400040014000
:104E20000044014000480140F0B5164F164B026A9D
:104E3000046A984222F4003524F480330362426805
:104E4000436D0E890C6803EA070344EA030445EA4C
:104E500006430BD00D4DA84208D00D4DA84205D0F9
:104E60000C4DA84202D00C4DA84204D14D6922F449
:104E7000803242EA052242604465496881650362E6
:104E8000F0BD00008FFFFEFF000001400004014064
:104E9000004001400044014000480140F0B5164F79
:104EA000164B026A046A984224F48013036222F4C7
:104EB00000144268436D0E890D6803EA070344EA53
:104EC000065443EA05230BD00D4DA84208D00D4DE2
:104ED000A84205D00C4DA84202D00C4DA84204D1E6
:104EE0004D6922F4802242EA852242604365496886
:104EF000C1650462F0BD0000FF8FFFFE00000140AD
:104F000000040140004001400044014000480140CD
:104F100010B5036A046A23F00A0324F00104046252
:104F200084690B4324F0F00141EA021181610362BC
:104F300010BD000070B5184C056A066AA04226F044
:104F400001040462846914D0B0F1804F11D0134E73
:104F5000B0420ED0124EB0420BD0124EB04208D02A
:104F6000114EB04205D0114EB04202D0104EB042A8
:104F700003D124F00304144301E044F001041A07B0
:104F800024F0F00325F00A0401F00A01214343EA6A
:104F900012628261016270BD0000014000040040A5
:104FA00000080040000C00400004014000180040D0
:104FB0000040014010B5036A046A23F0A00324F006
:104FC00010040462846943EA011124F4704343EA43
:104FD00002328261016210BD70B54FF6FF7404EABF
:104FE0000333046AA025066A05EA011126F01006BB
:104FF000066224F0A0058469294324F4407444EA3D
:10500000022222F4704213438361016270BD0000EA
:1050100030B5416EB9B101680D4B03F108048A68DF
:105020008968C2F34262490F5D5C615C2D01B5FB8A
:10503000F1F1A0F86A10995CA25C0901B1FBF2F1F0
:10504000A0F8681030BD0121A0F86A10F8E7000050
:105050004C58000890F82810090706D50168836BA2
:105060004A6822F400421A434A6090F82810C9079F
:1050700006D00168C36A4A6822F400321A434A60C3
:1050800090F82810890706D50168036B4A6822F456
:1050900080321A434A6090F82810490706D5016803
:1050A000436B4A6822F480221A434A6090F8281021
:1050B000C90606D50168C36B8A6822F480521A4378
:1050C0008A6090F82810890606D50168036C8A6802
:1050D00022F400521A438A6090F82810490611D52C
:1050E0000168436C4A6822F480121A434A60416C9A
:1050F000B1F5801F06D10168836C4A6822F4C002B2
:105100001A434A6090F82810090606D50168C26C57
:10511000486820F400201043486070472DE9F843A8
:1051200000250446C0F89050FCF766FA80462068D7
:1051300020266FF07E470068000713D50022434603
:1051400031042046009700F03FFA58B1216851E839
:10515000000F20F0800041E80002002AF6D1C4F8D8
:10516000886021E020680068400722D5002243467D
:105170004FF480012046009700F026FAC8B120685D
:1051800050E8001F21F4907140E80012002AF6D187
:105190002068083050E8001F21F0010140E80012AB
:1051A000002AF5D1C4F88C60032084F88450BDE84F
:1051B000F883C4F88860C4F88C60E5662567002031
:1051C00084F88450F3E7000010B5026852E8001F2D
:1051D00021F4907142E80013002BF6D10E4B0268C7
:1051E000083252E8001F194042E80014002CF6D1A2
:1051F000C16E012908D1026852E8001F21F0100198
:1052000042E80013002BF6D100212022C0F88C20A8
:10521000C166416710BD0000FEFFFFEF2DE9F043BE
:1052200004468068D84E87B0D84B2168D4E904275B
:10523000D4F81CC010430A68002547EA0C0738431D
:10524000324002430A602068E268416821F440511C
:10525000114341602268A1699A4201D0206A01434A
:105260009768DFF82CC3CB4ECB4807EA0C070F43F7
:1052700097602168676ACA6A22F00F023A43CA62DD
:105280002268B2420ED1006800F03800182873D0AE
:1052900047DCB8B3082879D010286FD178E02828E7
:1052A0007ED17BE0BD498A4209D1006800F0070049
:1052B000062875D2DFE800F0546A6C6E7072B84947
:1052C0008A4209D1006800F00700062868D2DFE8AA
:1052D00000F0475D5F616365B2498A4209D10068A9
:1052E00000F0070006285BD2DFE800F03A50525485
:1052F0005658AD498A420BD1006800F007000628D5
:105300004ED200E010E0DFE800F02B414345474972
:10531000A6498A420AD1006800F03800182839D01E
:10532000B7DD2028BBD13CE001203AE0A0498A4209
:1053300009D1006800F00700062831D2DFE800F04C
:105340001026282A2C2E9B498A420BD1006800F097
:105350000700062824D2DFE800F003191B1D1F21D7
:1053600000201EE09A421BD18B48001D006800F00F
:105370000700062814D202E00CE007E010E0DFE8A6
:1053800000F0030507090B0D02200AE0042008E0E5
:10539000082006E0102004E0202002E0402000E089
:1053A00080208549DFF814829A42854A4FF40043F1
:1053B0004FEA21174FF000064ED110281AD006DC14
:1053C000022809D004280BD008287CD10DE0202821
:1053D0003ED0402877D13DE0FCF730FA014610E09E
:1053E0006846FCF7E1FA01990BE003A8FCF77EFBA5
:1053F000049906E01068800605D51068C0F3C10066
:10540000C140002970D0606A676838F8102007EB47
:105410004703B1FBF2F0834255D8B0EB073F52D8B7
:10542000002308461946FAF753FF02467808130E80
:10543000120243EA012110183A4671410023FAF79B
:1054400047FF604AA0F5407191423CD821688FE047
:105450003946D8E71946D6E7D4F81CC04FF6EF799D
:105460009C4546D1082819D005DC58B101280CD03C
:10547000042875D10DE0102815D0202835D04028FB
:105480006ED134E0FDF75EFB01E0FDF76DFB0146F8
:1054900010E06846FCF788FA01990BE003A8FCF7D6
:1054A00025FB049906E01068800604D51068C0F357
:1054B000C100C140C1B1636A606838F81330B1FB04
:1054C000F3F1490000E04BE001EB5001B1FBF0F0DB
:1054D000A0F11001494543D84FF6F0732168C0F39D
:1054E00042021840104343E043E03946E3E71946DF
:1054F000E1E7082819D005DC58B101280CD00428B0
:105500002ED10DE0102815D020282BD0402827D1EF
:105510002AE0FDF717FB01E0FDF726FB014610E04E
:105520006846FCF741FA01990BE003A8FCF7DEFAA4
:10553000049906E01068800604D51068C0F3C10025
:10554000C140B1B1636A606838F81330B1FBF3F160
:1055500001EB5001B1FBF0F0A0F11001494505D974
:10556000012506E03946EDE71946EBE7216880B2F0
:10557000C8600120A4F86A00A4F86800284666679D
:10558000A66707B0BDE8F083F369FFCF000C0058B1
:10559000FFF4FF1100100140544402580044004041
:1055A00000480040004C0040005000400014014002
:1055B00000780040007C00400090D0033458000880
:1055C00000440258FFFC0F002DE9F04799461746AA
:1055D0000D460446089E4FF0000833E0701C31D0A1
:1055E000FCF70AF8A0EB0900B04218D8BEB1206859
:1055F0000168490726D5802D24D0402D22D0C169CD
:10560000C94309070DD4082505622046FFF7DCFDD4
:10561000C4F89050012084F88480BDE8F08703200E
:10562000FBE7C069C04300050CD421684FF400605B
:1056300008622046FFF7C8FD2021C4F8901084F8C6
:105640008480ECE72068C06935EA000004D00020BF
:10565000B842C3D00020E0E70120F9E7FEE70000F0
:10566000014A024900F024B8D55600081800002469
:10567000090700284FEA116104DB00F1E02080F8FF
:105680000014704700F00F0000F1E02080F8141DB6
:10569000704702E008C8121F08C1002AFAD17047FB
:1056A0007047002001E001C1121F002AFBD17047A2
:1056B0002DE9F04116460F460446002503E0394621
:1056C000B047641C6D1C20780028F8D12846BDE83E
:1056D000F081000013B5044801224FF6FF736946BC
:1056E000FEF782FC00981CBD600300241FB5002457
:1056F0000094019402940394FCF708F801208DF8BB
:105700000C001F218DF8081087228DF809208DF8D4
:105710000D008DF8000068468DF80A408DF80E40A7
:105720008DF8014001948DF80B408DF80F40FBF788
:10573000BFFF0420FBF7F8FFFBF76CFFFFF7F8F85B
:10574000FEF7B1FFFEF778FDFEF7C2FCFEF706FD9F
:10575000FEF740FDFEF706FEFEF7DEFEFEF76CFFED
:10576000FEF7A6FEFEF764FEFEF742FFFAF7BEFE66
:105770001548FDF76BFE1548FDF768FE124800213D
:10578000FEF764F812480021FEF796FA104D4FF428
:105790007A742868446304212846FEF78DFA286845
:1057A000846308212846FEF787FA2868C4630C2121
:1057B0002846FEF781FA2868046406A0FFF750FF28
:1057C0006420FBF7C3FBF8E7300200241403002435
:1057D000C8020024610A0000000102030405060754
:1057E000080C1014182030400000000000000000D9
:1057F00000000000000000000000000001000000A8
:10580000020000000300000004000000000000008F
:105810000500000000000000000000000000000083
:105820000600000000000000000000000000000072
:1058300007000000010002000400060008000A0042
:105840000C00100020004000800000010101010355
:105850000701000008040204080101010000000023
:105860000102030401020304060708098C5800081A
:10587000000000241C00000092560008A8580008F0
:105880001C000024DC070000A256000800000000F5
:105890000100000010000000000000000090D00394
:0858A0000090D003000000009D
:040000050800029954
:00000001FF
